{
  "contractName": "AccessControl",
  "abi": [
    {
      "inputs": [],
      "stateMutability": "nonpayable",
      "type": "constructor"
    },
    {
      "anonymous": false,
      "inputs": [
        {
          "indexed": true,
          "internalType": "bytes32",
          "name": "role",
          "type": "bytes32"
        },
        {
          "indexed": true,
          "internalType": "address",
          "name": "account",
          "type": "address"
        }
      ],
      "name": "GrantRole",
      "type": "event"
    },
    {
      "anonymous": false,
      "inputs": [
        {
          "indexed": true,
          "internalType": "bytes32",
          "name": "role",
          "type": "bytes32"
        },
        {
          "indexed": true,
          "internalType": "address",
          "name": "account",
          "type": "address"
        }
      ],
      "name": "RevokeRole",
      "type": "event"
    },
    {
      "inputs": [],
      "name": "ADMIN",
      "outputs": [
        {
          "internalType": "bytes32",
          "name": "",
          "type": "bytes32"
        }
      ],
      "stateMutability": "view",
      "type": "function"
    },
    {
      "inputs": [
        {
          "internalType": "bytes32",
          "name": "",
          "type": "bytes32"
        },
        {
          "internalType": "address",
          "name": "",
          "type": "address"
        }
      ],
      "name": "roles",
      "outputs": [
        {
          "internalType": "bool",
          "name": "",
          "type": "bool"
        }
      ],
      "stateMutability": "view",
      "type": "function"
    },
    {
      "inputs": [
        {
          "internalType": "bytes32",
          "name": "_role",
          "type": "bytes32"
        },
        {
          "internalType": "address",
          "name": "_account",
          "type": "address"
        }
      ],
      "name": "grantRole",
      "outputs": [],
      "stateMutability": "nonpayable",
      "type": "function"
    },
    {
      "inputs": [
        {
          "internalType": "bytes32",
          "name": "_role",
          "type": "bytes32"
        },
        {
          "internalType": "address",
          "name": "_account",
          "type": "address"
        }
      ],
      "name": "revokeRole",
      "outputs": [],
      "stateMutability": "nonpayable",
      "type": "function"
    }
  ],
  "bytecode": "0x608060405234801561001057600080fd5b5061004560405160200161002390610151565b604051602081830303815290604052805190602001203361004a60201b60201c565b610166565b600160008084815260200190815260200160002060008373ffffffffffffffffffffffffffffffffffffffff1673ffffffffffffffffffffffffffffffffffffffff16815260200190815260200160002060006101000a81548160ff0219169083151502179055508073ffffffffffffffffffffffffffffffffffffffff16827f5a06360d65acf95e98445dc834f205063424c636e65418d928cdfabc33a9539960405160405180910390a35050565b600081905092915050565b7f41444d494e000000000000000000000000000000000000000000000000000000600082015250565b600061013b6005836100fa565b915061014682610105565b600582019050919050565b600061015c8261012e565b9150819050919050565b610678806101756000396000f3fe608060405234801561001057600080fd5b506004361061004c5760003560e01c80632a0acc6a146100515780632f2ff15d1461006f578063d547741f1461008b578063f8fc08b9146100a7575b600080fd5b6100596100d7565b6040516100669190610439565b60405180910390f35b610089600480360381019061008491906104e3565b6100ff565b005b6100a560048036038101906100a091906104e3565b6101cf565b005b6100c160048036038101906100bc91906104e3565b610341565b6040516100ce919061053e565b60405180910390f35b6040516020016100e6906105b0565b6040516020818303038152906040528051906020012081565b60405160200161010e906105b0565b6040516020818303038152906040528051906020012060008082815260200190815260200160002060003373ffffffffffffffffffffffffffffffffffffffff1673ffffffffffffffffffffffffffffffffffffffff16815260200190815260200160002060009054906101000a900460ff166101c0576040517f08c379a00000000000000000000000000000000000000000000000000000000081526004016101b790610622565b60405180910390fd5b6101ca8383610370565b505050565b6040516020016101de906105b0565b6040516020818303038152906040528051906020012060008082815260200190815260200160002060003373ffffffffffffffffffffffffffffffffffffffff1673ffffffffffffffffffffffffffffffffffffffff16815260200190815260200160002060009054906101000a900460ff16610290576040517f08c379a000000000000000000000000000000000000000000000000000000000815260040161028790610622565b60405180910390fd5b600080600085815260200190815260200160002060008473ffffffffffffffffffffffffffffffffffffffff1673ffffffffffffffffffffffffffffffffffffffff16815260200190815260200160002060006101000a81548160ff0219169083151502179055508173ffffffffffffffffffffffffffffffffffffffff16837f5a06360d65acf95e98445dc834f205063424c636e65418d928cdfabc33a9539960405160405180910390a3505050565b60006020528160005260406000206020528060005260406000206000915091509054906101000a900460ff1681565b600160008084815260200190815260200160002060008373ffffffffffffffffffffffffffffffffffffffff1673ffffffffffffffffffffffffffffffffffffffff16815260200190815260200160002060006101000a81548160ff0219169083151502179055508073ffffffffffffffffffffffffffffffffffffffff16827f5a06360d65acf95e98445dc834f205063424c636e65418d928cdfabc33a9539960405160405180910390a35050565b6000819050919050565b61043381610420565b82525050565b600060208201905061044e600083018461042a565b92915050565b600080fd5b61046281610420565b811461046d57600080fd5b50565b60008135905061047f81610459565b92915050565b600073ffffffffffffffffffffffffffffffffffffffff82169050919050565b60006104b082610485565b9050919050565b6104c0816104a5565b81146104cb57600080fd5b50565b6000813590506104dd816104b7565b92915050565b600080604083850312156104fa576104f9610454565b5b600061050885828601610470565b9250506020610519858286016104ce565b9150509250929050565b60008115159050919050565b61053881610523565b82525050565b6000602082019050610553600083018461052f565b92915050565b600081905092915050565b7f41444d494e000000000000000000000000000000000000000000000000000000600082015250565b600061059a600583610559565b91506105a582610564565b600582019050919050565b60006105bb8261058d565b9150819050919050565b600082825260208201905092915050565b7f4e6f7420417574686f7269736564000000000000000000000000000000000000600082015250565b600061060c600e836105c5565b9150610617826105d6565b602082019050919050565b6000602082019050818103600083015261063b816105ff565b905091905056fea2646970667358221220ec535719902fb6dc315ad802ba499b1c88f17c558000db14551ea704505366e064736f6c634300080b0033",
  "immutableReferences": {},
  "source": "// SPDX-License-Identifier: MIT\r\n\r\npragma solidity ^0.8.10;\r\n\r\ncontract AccessControl {\r\n    event GrantRole(bytes32 indexed role, address indexed account);\r\n    event RevokeRole(bytes32 indexed role, address indexed account);\r\n\r\n    mapping(bytes32 => mapping(address => bool)) public roles;\r\n\r\n    bytes32 public constant ADMIN = keccak256(abi.encodePacked(\"ADMIN\"));\r\n    bytes32 private constant USER = keccak256(abi.encodePacked(\"USER\"));\r\n\r\n    modifier onlyRole(bytes32 _role) {\r\n        require(roles[_role][msg.sender], \"Not Authorised\");\r\n        _;\r\n    }\r\n\r\n    constructor() {\r\n        _grantRole(ADMIN, msg.sender);\r\n    }\r\n\r\n    function _grantRole(bytes32 _role, address _account) internal {\r\n        roles[_role][_account] = true;\r\n        emit GrantRole(_role, _account);\r\n    }\r\n\r\n    function grantRole(bytes32 _role, address _account)\r\n        external\r\n        onlyRole(ADMIN)\r\n    {\r\n        _grantRole(_role, _account);\r\n    }\r\n\r\n    function revokeRole(bytes32 _role, address _account)\r\n        external\r\n        onlyRole(ADMIN)\r\n    {\r\n        roles[_role][_account] = false;\r\n        emit GrantRole(_role, _account);\r\n    }\r\n}\r\n",
  "sourcePath": "C:\\Users\\chekm\\Desktop\\truffle\\blockchain\\basicAccessControl\\contracts\\basicAccessControl.sol",
  "compiler": {
    "name": "solc",
    "version": "0.8.11+commit.d7f03943.Emscripten.clang"
  },
  "schemaVersion": "3.4.4",
  "updatedAt": "2022-02-03T19:33:45.881Z",
  "devdoc": {
    "kind": "dev",
    "methods": {},
    "version": 1
  },
  "userdoc": {
    "kind": "user",
    "methods": {},
    "version": 1
  }
}